:020000040800F2
:10000000E06B0020A10100087F350008A70200086E
:100010007D3500085D130008693E000800000000FF
:10002000000000000000000000000000B301000814
:100030005F13000800000000F3010008C13700084A
:10004000BB010008BB010008BB010008BB010008A0
:10005000BB010008BB010008BB010008BB01000890
:10006000BB010008BB010008BB010008BB01000880
:10007000BB010008BB010008BB010008BB01000870
:10008000BB010008BB010008BB010008BB01000860
:10009000BB010008BB010008BB010008BB01000850
:1000A000BB010008BB010008BB010008BB01000840
:1000B000BB010008BB010008BB010008BB01000830
:1000C000BB010008BB010008BB010008BB01000820
:1000D000BB010008BB010008253E0008BB01000869
:1000E00061130008BB010008BB010008BB01000848
:1000F000BB010008BB010008BB010008BB010008F0
:10010000000000000000000000000000BB0100082B
:10011000BB010008BB010008BB010008BB010008CF
:10012000BB010008BB010008BB010008BB010008BF
:10013000BB010008BB010008000000000000000037
:10014000BB010008BB010008BB0100080000000063
:10015000000000000000000000000000000000009F
:100160000000000000000000BB010008BB01000807
:10017000BB010008000000000000000000000000BB
:1001800000000000BB010008DFF810D000F072FE94
:1001900000480047EF0E0008AFF30080E06B00203E
:1001A0000648804706480047FEE7FEE7FEE7FEE711
:1001B000FEE7FEE7FEE7FEE7FEE7FEE7CD380008D4
:1001C00089010008EFF3108072B6704780F3108841
:1001D0007047434A1368012B04D04FF001031360AA
:1001E000404A1060404A116040484FF08051016021
:1001F0007047EFF3108272B63948016851B34FF07F
:10020000000101603748016891B1EFF309811EF0E8
:10021000100F08BF21ED108B21E9F00F4FF0000403
:100220001EF0100F08BF012441F8044D0068016062
:100230002D490968096808C9B1E8F00F002B18BFFB
:10024000B1EC108B81F309884EF0100E002B18BF13
:100250002EF0100E82F310884EF0040E70472249E3
:100260000860EFF3148222F0040282F314881D491F
:100270004FF0000008601A494FF0010008601C4868
:100280004FF47F01D0F8002041EA020101601748D5
:100290004FF08051016017480068006880F30888BB
:1002A00061B662B670471EF0040F0CBFEFF3088012
:1002B000EFF3098020E9F00F40F804ED40F804ED79
:1002C0001EF0040F0CBF80F3088880F3098800B586
:1002D00004F054FF5DF804EB4EF0040E704700008C
:1002E000240100201C0100202001002004ED00E07A
:1002F00020ED00E008ED00E02DE9F00F6FF00304C1
:100300002DED0C8B5FEAD30AD0E901C7B0F800905D
:1003100004EB89040CEB04089FEDFE9A18BF4FEA2A
:10032000D90B00F0C18100BF91ED000AB0EE493A4F
:1003300088ED000A91ED010AF0EE430A88ED010A0A
:1003400091ED020AB0EE431A88ED020A91ED030A1C
:10035000F0EE431A88ED030A91ED040AB0EE432A49
:1003600088ED040A91ED050AF0EE432A88ED050AAE
:1003700091ED060AF0EE433A88ED060A91ED070A80
:10038000203188ED070ADCED007A9CED017ADCED86
:10039000026A9CED036ADCED045A9CED055ADCED23
:1003A000064AB0EE434A3D460CF11C0408F1200811
:1003B0005FEA0B0600F02681D5ED008A94ED008AF5
:1003C00026EE280A65EEA89A25EE28AA27EEA8BAF6
:1003D00064EEA8AA67EE28BA26EEA8CA68EE28CA74
:1003E000D5ED018A32EE000A32EEA92A73EE0A2A0E
:1003F00030EE8BBA33EEAA3AD5ED020A74EE2C3AFF
:1004000071EE8C1AD4ED017A31EE2B1A27EE28DA30
:1004100026EEA8CA66EE28BA25EEA84A65EE289A06
:1004200024EEA8AA68EE28AA67EEA8CA94ED027A7C
:100430007BEE0D8A31EE0C1A71EEAB1A30EE040A27
:1004400032EE292A72EE8A2A33EE2A3A73EEAC3A59
:1004500066EEA0CA66EE20BA65EEA09A25EE20AA46
:1004600024EEA04A68EE20AA27EEA0BA27EE20CA02
:10047000D5ED030AD4ED036A30EE0A0A32EE042AFF
:1004800078EEAC8A31EE2B1A71EEA91A72EEAA2A16
:1004900033EE0B3A73EE8C3A66EE20CA65EEA0BAE4
:1004A00065EE209A24EEA04A28EE20AA67EEA0AAC4
:1004B00027EE20BA26EEA0CAD5ED040A78EEAC8A63
:1004C00031EE2B1A71EEA91A30EE040A32EE0A2A26
:1004D00072EEAA2A33EE0B3A73EE8C3A65EEA0CA9E
:1004E00094ED046A65EE20BA24EEA0BA28EE204A04
:1004F00067EEA09A27EE20AA66EEA0AA26EE20CAF2
:10050000D5ED050AD4ED055A31EE2B1A71EE8B1A92
:1005100078EEAC8A30EE040A32EE292A72EE8A2A8C
:1005200033EE2A3A73EE8C3A65EE20CA24EEA0BA76
:1005300068EE20BA27EEA04A67EE209A26EEA0AA1F
:1005400066EE20AA25EEA0CAD5ED060A30EE040A12
:1005500032EE292A27EE204A94ED065A72EE8A2AB4
:1005600066EEA09A78EEAC8A31EE0B1A71EEAB1AF9
:1005700033EE2A3A73EE8C3A26EE20AA65EEA0AA54
:1005800064EEA0BA28EE20CA27EEA0BA65EE20CA13
:10059000D5ED070A30EE040A32EE294A72EE8A9A45
:1005A00033EE2AAAD4ED074A31EE0C1A78EEAB8A64
:1005B00028EE20CA71EE8B1A73EEACAA66EE202AE2
:1005C00067EEA0BA27EE20BA26EEA02A25EEA03AC2
:1005D00065EE203A24EEA08A74EE222A78EE8C0A88
:1005E00031EE2B1A71EE8B1A30EE022A39EE833A75
:1005F0007AEE233A3AEE884A20342035761E7FF48C
:10060000DBAE00BF19F0070636D000BF95ED008ABB
:1006100094ED000A241D67EE889A67EE088A26EE9C
:1006200088AA66EE08AA25EE88BA65EE08BA24EE16
:1006300088CA20EE088AF0EE477AB0EE667AF0EECD
:10064000466AB0EE656AF0EE455A70EEA90A31EEE0
:10065000281A71EE8A1A32EE2A2A72EE8B2A33EEAB
:100660002B3A73EE8C3A34EE084AB0EE645A2D1DE4
:10067000F0EE404A761EC9D1C2ED000A82ED011AA1
:10068000C2ED021A82ED032AC2ED042A82ED053A78
:10069000C2ED063A82ED074A2032BAF1010A0CF1A6
:1006A000200C7FF441AE00BF13F0070A43D000BF17
:1006B000B1EC010A3E1D0CF10404B9F10103A8ECF0
:1006C000010ADCED000A97ED001AB0EE490A00EECF
:1006D000810A29D0B3F1004F7DD2002B24DD251FE4
:1006E000341F13F0010F07D0D5ED010A94ED011A64
:1006F000241D2D1D00EE810A5B1015D0D5ED010AD9
:1007000094ED011A00EE810AD5ED020A94ED021A69
:1007100002E000000000000000EE810A5B1E04F110
:10072000080405F10805E9D1A2EC010ABAF1010AB1
:100730000CF1040CBCD14068A9F10104A3081FD03E
:10074000B3F1004F54D2002B1ADD624601461D461C
:1007500092ED000A81ED000A92ED010A81ED010A95
:1007600092ED020A81ED020A92ED030A103281ED48
:10077000030A10316D1EEBD10CEB031C00EB0310D0
:1007800014F0030202BFBDEC0C8BBDE8F00F704704
:10079000B2F1004F42D2002A1ADD001FACF1040171
:1007A00012F0010F05D091ED010A80ED010A001D44
:1007B000091D52080CD000BF91ED010A80ED010A1D
:1007C00091ED020A083180ED020A0830521EF3D181
:1007D000BDEC0C8B00E002E0BDE8F00F7047F4ECDC
:1007E000010A5B1EB6EC011A00EE810AF7D19BE705
:1007F0009CED000A80ED000A9CED010A80ED010AE3
:100800009CED020A80ED020A9CED030A0CF1100C2B
:1008100080ED030A10305B1EEAD1B1E7BCEC010A9F
:10082000521EA0EC010AF9D1D2E770B50446049833
:10083000218008448000011F1D461846A26000F078
:100840004AF8656070BD2DE9F05F054600209246CC
:100850009B4688460646814640241BE02846414682
:100860004746224600F020F853465A46C01A9141A6
:1008700010D311461846224600F016FA2D1A67EBDF
:1008800001084F4622460120002100F00DFA17EB27
:1008900000094E41201EA4F10104DFDC4846314628
:1008A0002A464346BDE8F09F202A04DB203A21FA7D
:1008B00002F00021704721FA02F3D040C2F1200279
:1008C0009140084319467047D2B201E000F8012B6D
:1008D000491EFBD270470022F6E710B513460A46C0
:1008E00004461946FFF7F0FF204610BD2DE9FE4FE4
:1008F000804681EA0300C00F0C46009021F00041C1
:1009000023F00045B8EB0200A94105D2404621463C
:1009100090461C460B46024623F00040104347D049
:10092000270DC7F30A00C3F30A510290401A019041
:1009300040286BDAC3F3130040F4801B0098924602
:1009400020B10023D2EB030A63EB0B0B019859464D
:10095000C0F14002504600F0A7F906460D46504649
:100960005946019A00F0AFF910EB080061410024EC
:1009700087EA115284EAE7731A4340D0009A62B3BF
:10098000019A012A4FEA075215DC001B61EB0201B4
:100990004FF0004202EA0752CDE90042001C41F547
:1009A000801132462B4600F0E6F903B0BDE8F08F27
:1009B00040462146F9E7001B61EB0201001C41F5AE
:1009C000801300185B412018A2F5001747EB0301C4
:1009D00040EAD570B6196D4111E06D084FEA360650
:1009E00045EAC0754FEA0752001B61EB0201001C8B
:1009F00041F5801149084FEA300000195141324653
:100A00002B4603B0BDE8F04F00F0A6B900980122D4
:100A100040000023D0EB020263EBE0730098214614
:100A20004FEAE074B8EB000061EB0401E9E783F002
:100A300000435BE781F0004158E72DE9FE4F81EA72
:100A4000030404F0004421F0004100944FF0000B37
:100A500023F0004350EA01045ED052EA03045BD065
:100A6000C3F30A54C1F30A552C44A4F2F33401949D
:100A7000A0FB0254C1F3130141F48011C3F313032B
:100A800043F4801301FB024400FB034E840A970ADF
:100A900044EA815447EA8357A4FB076802958D0A0C
:100AA00005FB07854FEA932C04FB0C542705029D98
:100AB0004FEA065847EA1637B5EB08056EEB070C08
:100AC000870E920E47EA811742EA8312A7FB0201C2
:100AD000B6EB0B0164EB00042B0D43EA0C335E18FC
:100AE00044EB1C50DA465146E7FB0201C5F3130400
:100AF0004FEA0B3343EA14534FEA0432019C43EAB2
:100B00000603A4F10C040294009CCDE900B400F0AB
:100B100032F903B0BDE8F08F00200146F9E72DE976
:100B2000F04D81EA030404F0004B21F00045144627
:100B30004FF0000A23F0004150EA050220D054EAA9
:100B400001021DD0C5F30A570246C5F31303C1F3D2
:100B50001300C1F30A5640F4801543F48013A7EB49
:100B60000608101BD64608F2FD3873EB050002D3C9
:100B700008F1010801E092185B41B8F1000F03DAB7
:100B800000200146BDE8F08D00204FF4801106469C
:100B900084460EE0171B73EB050705D3121B63EBAE
:100BA000050306434CEA010C49084FEA300092184D
:100BB0005B4150EA0107EDD152EA030012D082EA0C
:100BC000040083EA0501084305D0101BAB4106D29F
:100BD0000122002306E000224FF0004302E06FF004
:100BE000010253101AEB06004CEB085110EB0A00FF
:100BF00041EB0B01BDE8F04D00F0AEB80EB5C10FF2
:100C000080EAE0700844CA07002140F233438DE8CF
:100C10000E000A460B4600F0AEF803B000BD00F02F
:100C2000004230F000400AD0C10D01F56071C0F300
:100C3000160042EA0151C2084007114370470020E4
:100C40000146704701F0004330B421F0004150EA02
:100C5000010206D00A0DA2F56072C1F31301002A49
:100C600002DC30BC00207047440F44EAC104C100DC
:100C7000E01830BC00EBC25000F037B830B50B467E
:100C8000014600202022012409E021FA02F59D42BC
:100C900005D303FA02F5491B04FA02F52844151E90
:100CA000A2F10102F1DC30BD202A04DB203A00FA77
:100CB00002F1002070479140C2F1200320FA03F3B3
:100CC000194390407047202A06DBCB17203A41FA9F
:100CD00002F043EAE07306E041FA02F3D040C2F1C9
:100CE000200291400843194670470029A8BF704769
:100CF000401C490008BF20F00100704710B4B0FA52
:100D000080FC00FA0CF050EA010404BF10BC7047EC
:100D100049B1CCF1200421FA04F411FA0CF118BF06
:100D2000012121430843A3EB0C01CB1D4FEA0061D5
:100D30004FEA102042BF002010BC704700EBC350A8
:100D400010440029A4BF10BC7047401C490008BFD4
:100D500020F0010010BC704710B5141E73F10004A0
:100D600008DA401C41F1000192185B411A4301D19D
:100D700020F0010010BD2DE9F04D92469B4611B1C7
:100D8000B1FA81F202E0B0FA80F220329046FFF729
:100D90008BFF04460F4640EA0A0041EA0B01534626
:100DA0005A46084313D0114653EA010019D0C8F13E
:100DB00040025046FFF778FD05460E46504659461C
:100DC0004246FFF771FF084305D0012004E02046AA
:100DD0003946BDE8F08D0020054346EAE0762C4315
:100DE00037430A986305E40AA0EB08000022FD0AD5
:100DF00044EA47540A3002D500200146E9E70105DC
:100E000010196941DDE9084500196941BDE8F04D57
:100E1000A2E7C1F30A52C1F3130140F2FF3341F4D8
:100E200080119A4202DA00200146704740F23343B3
:100E30009A42A2F2334202DC5242FFF735BDFFF77D
:100E400033BF000030B5041E71F1000404DB4FF025
:100E50000044404264EB0101141E73F1000405DB01
:100E60001C464FF00043524263EB0403994208BF13
:100E7000904230BD064C074D06E0E06840F00103AB
:100E800094E8070098471034AC42F6D3FFF780F996
:100E9000C0660008E066000870B58C1810F8015BA9
:100EA00015F0070301D110F8013B2A1106D110F803
:100EB000012B03E010F8016B01F8016B5B1EF9D107
:100EC0002B0705D40023521E0DD401F8013BFAE78D
:100ED00010F8013BCB1A921C03E013F8015B01F8F8
:100EE000015B521EF9D5A142D8D3002070BD10B5C8
:100EF00004F0F4FF002010BD70B50D4D049E9FED71
:100F00000D0A2C8860F3CF3461F3082462F3471490
:100F100063F3C30466F3420444F001002880002117
:100F2000A81F418080ED020A80ED030A017070BDA8
:100F300032000020000000002DE9F0410122594F4D
:100F400056033146384600F0DDFB4FF4804801225D
:100F50004146384600F0D6FB751000222946384637
:100F600000F0D0FB4FF47A74204600F047FA0122DB
:100F70002946384600F0C6FB204600F03FFA002222
:100F80002946384600F0BEFB0A2003F085FC01220A
:100F90002946384600F0B6FB204600F02FFA002222
:100FA0003146384600F0AEFB00224146384600F09C
:100FB000A9FB0A2003F070FC112002F00BFB0A20B1
:100FC00003F06AFC01224146384600F09BFB2020DA
:100FD00000F06CF80646344F0AE0202000F066F876
:100FE00006462946384600F085FB204600F006FA02
:100FF000732EF2D101225102384600F083FB6420A7
:1010000003F04AFCE021422000F080F9642000F067
:10101000F5F90121412000F079F9642003F03CFC4E
:10102000F021432000F072F9642003F035FC6021C8
:10103000442000F06BF9642003F02EFC00214520D1
:1010400000F064F9642003F027FCEF21462000F053
:101050005DF9642003F020FC0F21472000F056F9D1
:10106000642003F019FC0021482000F04FF96420AF
:1010700003F012FCEA21492000F048F9642003F053
:101080000BFC03214A2000F041F9642003F004FC2A
:101090000C214B2000F03AF9BDE8F041642003F048
:1010A000FBBB0000000C00480010004870B5114E5A
:1010B00004464FF4804500222946304600F022FBCA
:1010C000204602F087FA0A2003F0E6FB002002F037
:1010D00081FA0A2003F0E0FB02F066FA04460A20D7
:1010E00003F0DAFB01222946304600F00BFB2046D4
:1010F00070BD0000000C00483F4810B53F4A732106
:101100000170127842703D4A00210E3213785478F3
:1011100041EA831343EA4413947843EA0413D478EE
:10112000127943EAC40343EA420242F08102334B9C
:10113000827010225B1CC2701A785C7841EAC2127D
:101140009B7842EA04121A432C4B02711B1D1A7839
:101150005C7841EAC2129B7842EA04121A43427157
:10116000264A13321378547841EA431343EA0413AE
:10117000947843EAC403D47843EA84031479527917
:1011800043EA4403134343F0C00282711B4A1932FD
:101190001378547841EA431343EA0413947843EAFA
:1011A000C403D47843EA84031479527943EA4403AC
:1011B0001343C371114B01720A331A785C7841EA08
:1011C000C21242EA84129C78DB7842EA84021A4313
:1011D00042F002024272094AD21D137841EAC31159
:1011E0005378927841EA830141EA420141F00101DA
:1011F00081720C21C17210BD4C0100203C00002006
:1012000002F0BEB910B5084900240C710D398C707C
:10121000C91C8C7000F00AF800B101240A2000F00B
:10122000EDF8204610BD00004A0000203EB5002425
:10123000FFF762FF114D0B216A1C412000F020F8DE
:101240000A2000F0DBF86A460C21202000F018F894
:101250000A2000F0D3F8002168466A5C435C9A4299
:1012600005D021B1082902D00B2900D00124491C46
:10127000C9B20C29F1D320463EBD00004C0100202C
:101280002DE9F047DFF8809014460D4606464FF4EE
:10129000804800224146484600F034FA642003F0BA
:1012A000FBFA304602F06CF9642003F0F5FA681E90
:1012B000C0B202F065F970064FF47A774FF000067D
:1012C00009D415E0384603F0E7FA207802F058F91F
:1012D000761CF6B2641CAE42F4D30BE0384603F041
:1012E000DBFA0020FFF78CFF761C04F8010BF6B246
:1012F000AE42F3D3642003F0CFFA41464846BDE83E
:10130000F047012200F0FEB9000C00482DE9F04141
:10131000114D0F4606464FF48044002221462846D0
:1013200000F0F0F9304602F055F90A2003F0B4FA63
:10133000002002F04FF90A2003F0AEFA384602F01E
:1013400049F90A2003F0A8FA21462846BDE8F041F1
:10135000012200F0D7B90000000C0048FEE77047FA
:101360004FF4006000F0DEB872B6FEE710B590F8FA
:1013700021100022022905D00421816380F8202059
:10138000012010BD01680B6823F00E030B6001689B
:101390000B6823F001030B6090F84030C46B01210F
:1013A00001FA03F3636080F8211080F82020002008
:1013B00010BD10B590F821100024022903D004219B
:1013C0008163012418E001680A6822F00E020A60B5
:1013D00001680A6822F001020A6090F84020C36B9D
:1013E000012101FA02F25A6080F82110002180F8F0
:1013F0002010416B01B18847204610BD70B50446EE
:1014000000F086F90546601C02D0044800780444C8
:1014100000F07EF9401BA042FAD370BDB00000205E
:101420003EB572B6B0F5006F72D100246D46FF2054
:1014300002F0A6F82855641CE4B2092CF7D39DF8F5
:1014400003009DF80410000440EA0122314C9DF88D
:101450000500314B024362639DF806009DF80710BA
:10146000000440EA01209DF8081000250843A0630D
:10147000A18843F82120491C89B2C822B1FBF2F3AC
:1014800002FB1313A18023B9B1FBF2F302FB13118A
:10149000A180224BE18843F82100491C89B2B1FBAD
:1014A000F2F302FB1313E18023B9B1FBF2F302FB69
:1014B0001311E180012121706188164A491C618065
:1014C000E06480F4000000EE100A4032111FB8EE14
:1014D000C00A134884ED0F0A6369FEF70DFF94ED0F
:1014E000080AD4ED100A6421B8EEC00A30EE200AD2
:1014F000BDEEC00A10EE100A20626288B2FBF1F362
:1015000001FB132222B990FBF1F065802562A061F6
:1015100062B63EBD5C000020782E0020983100208D
:10152000CC380020044910B50A68024202D0086095
:10153000FFF776FF10BD0000140401402DE9FC4FB9
:10154000DFF894A1002301250AF1040B03244FF0D6
:101550000F0C0BF1040EB8E005FA03F632406FD021
:101560004F68012F05D0022F03D0112F01D0122F69
:1015700017D1D0F808905F0004FA07F829EA0809A3
:101580000097D1F80C8008FA07F848EA0908C0F873
:1015900008804768B7430E79C6F300169E403E4365
:1015A0004660C6684FEA430804FA08F7BE4301974D
:1015B0008F6807FA08F73743C7604E68022E01D0DC
:1015C000122E13D1DE0800EB86060096366A5F07FE
:1015D000FF0E0CFA07F926EA0906D1F8109009FA6D
:1015E00007F949EA0609009EC6F820900668019F9F
:1015F000BE430F7907F0030707FA08F73743076080
:101600004E68F60060D5354EB76947F00107B761FF
:10161000B66923F0030706F001060096304E3E44FB
:10162000B146B6689F074FEA17780CFA08F7BE4331
:10163000B0F1904F05D02B4FB84204D1012712E0F2
:1016400042E000270FE0284FB84201D102270AE00C
:10165000264FB84201D1032705E0254FB84201D1FA
:10166000042700E0052707FA08F73743C9F8087090
:10167000DAF800605746D1F8048096435FEAC8382C
:1016800000D516433E60DBF800605F46D1F8048069
:1016900096435FEA883800D516433E60DEF8006066
:1016A0007746D1F8048096435FEAC82800D51643F0
:1016B0003E60094F0C373E68D1F8048096435FEADC
:1016C000882800D516433E605B1C0A6832FA03F690
:1016D0007FF442AFBDE8FC8F0004014000100240DF
:1016E000000001400004004800080048000C0048C9
:1016F00000100048426921EA02030A4043EA02411D
:10170000816170470AB18161704781627047000052
:101710000148806870470000B000002090F8412028
:10172000202A24D190F84020012A20D0012280F8DC
:101730004020242280F841200268136823F001032E
:1017400013600268136823F48053136002681368FF
:101750000B43136001680A6842F001020A6020210D
:1017600080F84110002180F84010084670470220A0
:10177000704790F84120202A22D190F84020012A79
:101780001ED0012280F84020242280F841200268E7
:10179000136823F0010313600268136823F4706375
:1017A00043EA0121116001680A6842F001020A60FF
:1017B000202180F84110002180F840100846704731
:1017C0000220704770B5040004D094F84100002551
:1017D00010B106E0012070BD84F84050204600F0B2
:1017E000ABF9242084F841002068016821F0010150
:1017F00001606068216820F070600861206881687D
:1018000021F400418160E0680128A06807D040F41D
:10181000044021688860E068022803D006E040F4B4
:101820000040F6E721684FF4006048602068416896
:10183000114A114341602068C16821F40041C16030
:10184000D4E904010843A16940EA01202168C86085
:10185000D4E907010843216808602068016841F065
:10186000010101606564202084F84100256384F84B
:101870004250002070BD0000008000022DE9FF4FA3
:1018800083B00446DDE9108790F84100DDF8489008
:101890009A469346202874D15FEA080014D09FB17D
:1018A00094F8400001286CD0012084F84000FFF734
:1018B0002FFF0646012200901923D103204601F094
:1018C0006FFC002871D103E04FF4007060646CE09D
:1018D000222084F84100402084F8420000256564FD
:1018E000C4F8248067856563CDE9009653465A465F
:1018F0002046049901F0DAFB10B184F8405054E01E
:10190000618D3548FF274FF080784FF0007AFF292E
:1019100004D927853A464346009005E0618D21852C
:10192000009094F8282053462046049901F022FCA8
:101930004B46002204212046009601F031FCA0BB5A
:101940002068406A616A0870606A401C6062208D8D
:10195000401E81B22185608D401E6085608DD8B1AA
:10196000D1B94B46002280212046009601F018FC98
:10197000D8B9608DFF2805D927853A46434600959A
:1019800006E026E0608D2085009594F828205346D7
:101990002046049901F0EEFB608D0028C8D1324644
:1019A0004946204601F028FC18B1012007B0BDE8E7
:1019B000F08F21682020C86121684A68074B1A40CF
:1019C0004A6084F8410084F8425084F84050002076
:1019D000ECE70220EAE700000024008000E800FEB7
:1019E0002DE9FF4F83B00446DDE9108790F84100F0
:1019F000DDF848909A469346202871D15FEA0800A6
:101A000014D09FB194F84000012869D0012084F8D7
:101A10004000FFF77DFE0646012200901923D10306
:101A2000204601F0BDFB00286ED103E04FF40070AA
:101A3000606469E0212084F84100402084F842007D
:101A400000256564C4F8248067856563CDE9009648
:101A500053465A462046049901F05AFB10B184F8C7
:101A6000405051E0608DFF274FF080784FF0007AB2
:101A7000FF2804D927853A464346009505E0608D46
:101A80002085009594F8282053462046049901F0BB
:101A900071FB32464946204601F0D4FBA0BB606A88
:101AA000216800788862606A401C6062608D401E18
:101AB0006085208D401E80B22085618DD9B1D0B95E
:101AC0004B46002280212046009601F069FBD8B9E0
:101AD000608DFF2805D927853A464346009506E0E4
:101AE00026E0608D2085009594F8282053462046F6
:101AF000049901F03FFB608D0028CAD13246494667
:101B0000204601F079FB18B1012007B0BDE8F08F45
:101B100020682021C16120684268064B1A4042605B
:101B200084F8411084F8425084F840500020ECE7DB
:101B30000220EAE700E800FE10B586B00446142152
:101B40006846FEF7C8FE1249206888421ED1114C33
:101B5000606940F4802060616069694600F480201B
:101B60000590C020009012200190012002900320D7
:101B70000390042004900848FFF7E0FCE06940F47B
:101B80000010E061E06900F40010059006B010BD9F
:101B900000540040001002400004004802488168E0
:101BA0000278114481607047B0000020074810B5EA
:101BB000016841F010010160032000F06FF800207F
:101BC00000F006F800F024F8002010BD00200240CC
:101BD00070B50D4D04464FF47A712878B1FBF0F0E2
:101BE0000A490968B1FBF0F000F069FF48B9102C10
:101BF00007D200222146501E00F030F800206C6011
:101C000070BD012070BD0000B0000020BC000020AD
:101C10000A4882B0816941F001018161816901F066
:101C200001010091C16941F08051C161C06900F0BA
:101C300080500090052002B000F030B80010024043
:101C4000002809DB00F01F020121914040098000BB
:101C500000F1E020C0F8001170470000F0B40E4B16
:101C60001B680C46C3F30223C3F10705042D00D9FA
:101C70000425191D072901D2002300E0DB1E0126DF
:101C800006FA05F1491E214099409E40761E1640F5
:101C90003143F0BC02F0FAB80CED00E0064900F068
:101CA000070208684FF6FF03184040EA0220034A83
:101CB00010430860704700000CED00E00000FA05DA
:101CC0002DE9F84F044600680026804DC0036ED50C
:101CD000E869C00008D4E86940F08050E861E8692C
:101CE000012600F08050009079480168C90512D49F
:101CF0000168804641F480710160FFF709FD0746E5
:101D000005E000BFFFF704FDC01B642835D8D8F8F4
:101D10000000C005F6D5286A10F4407053D0A188A1
:101D200001F4407181424ED0286A4FF4803191FA1B
:101D3000A1F2B2FA82F29700664A4FF00108174406
:101D400020F44070C7F8008491FAA1F1B1FA81F152
:101D500002EB81010023C1F800342862C00732D0B1
:101D6000FFF7D6FC074641F2883A4FF0020907E038
:101D7000FFF7CEFCC11B514502D90320BDE8F88F07
:101D800099FAA9F0B0FA80F040F040024946B8EB69
:101D9000521F01D12A680CE091FAA1F2B2FA82F244
:101DA00042F04002B1EB521F02D12A6A01E015E075
:101DB0006A6A99FAA9F1B1FA81F101F01F0108FAF2
:101DC00001F00242D4D0286A616820F440700843D0
:101DD00028621EB1E86920F08050E8612078C007D1
:101DE00005D0286BA16820F0030008432863207801
:101DF000800705D5286BE16820F44030084328634C
:101E00002078400705D5286B216920F4402008433D
:101E100028632078800605D5286BE16920F0100042
:101E2000084328632068800305D56868A16B20F407
:101E30008000084368602078400605D5286B216A39
:101E400020F02000084328632078000705D5286B80
:101E5000616920F44010084328632078C00605D546
:101E6000286BA16920F4400008432863208880057E
:101E700005D56868E16A20F40000084368602078AE
:101E8000000605D5E86A616A20F4F8700843E86244
:101E90002088C00505D5E86AA16A20F47850084377
:101EA000E8622088C00405D5286B216B20F480707F
:101EB000084328632088800405D5286B616B20F4D3
:101EC000007008432863002058E70000001002401B
:101ED00000700040000042422DE9F0470F46050027
:101EE00069D04A4E306800F00700B84209D2306825
:101EF00020F0070038433060306800F00700B84237
:101F000059D12878424C800705D56068A96820F02F
:101F1000F000084360602878C0073DD06968012060
:101F200001290DD0022923D05FF0020393FAA3F216
:101F3000B2FA82F242F02002520904D0226803E091
:101F40004FF40033F2E7626A93FAA3F3B3FA83F330
:101F500003F01F03984002422DD0606820F0030078
:101F600008436060FFF7D4FB804641F288390CE0FB
:101F70004FF00073DAE700BFFFF7CAFBA0EB0801E0
:101F8000494502D90320BDE8F0876068696800F020
:101F90000C00B0EB810FEFD1306800F00700B842C1
:101FA0000BD9306820F0070038433060306800F00B
:101FB0000700B84201D00120E5E72878400705D5A1
:101FC0006068E96820F4E0600843606028780007F2
:101FD00006D56068296920F4605040EAC10060605D
:101FE00000F04EF86168F02292FAA2F201F0F001DE
:101FF000B2FA82F2D140074A515CC84006490860F3
:1020000006480068FFF7E4FD0020BCE7002002401E
:102010000010024074650008BC000020B4000020DD
:1020200008480949006849684FF4E06292FAA2F250
:1020300001F4E061B2FA82F2D140044A515CC84036
:1020400070470000BC0000200010024084650008BA
:1020500008480949006849684FF4605292FAA2F2B0
:1020600001F46051B2FA82F2D140044A515CC84096
:1020700070470000BC00002000100240846500088A
:10208000164A10B55168164801F00C03042B20D0F5
:10209000082B1ED14FF4701494FAA4F401F47013B9
:1020A000B4FA84F4E3400F4CD26AE45C0F2393FA51
:1020B000A3F302F00F02B3FA83F3DA40094B1033B3
:1020C000C9039A5C06D500231946FEF7BCFBA0FBAA
:1020D000040110BD0448A4FB000110BD0010024023
:1020E00000127A005465000800093D002DE9F84F00
:1020F000050071D02878FC4EC0074FF0010425D0B0
:1021000070686704C0F38100012807D07068C0F3CD
:10211000810002281BD17068C00318D597FAA7F078
:10212000B0FA80F040F02000400901D0306800E0B3
:10213000706A97FAA7F1B1FA81F101F01F0104FA70
:1021400001F1084265D068680028D2D061E0686873
:10215000B0F5803F0BD010B1B0F5A02F17D030688C
:1021600020F480303060306820F4802002E0306855
:1021700040F480303060F06AA96820F00F00084316
:10218000F062686820B3FFF7C3FA80460AE030685F
:1021900040F480203060EAE7FFF7BAFAA0EB0800CD
:1021A000642871D897FAA7F0B0FA80F040F02000C8
:1021B000400901D0306800E0706A97FAA7F1B1FADF
:1021C00081F101F01F0104FA01F10842E4D020E09E
:1021D000FFF79EFA804607E0C2E000BFFFF798FADB
:1021E000A0EB08006428DCD897FAA7F0B0FA80F0DA
:1021F00040F02000400901D0306800E0706A97FA92
:10220000A7F1B1FA81F101F01F0104FA01F10842CE
:10221000E4D12878DFF8D48280074FF0000A4FF02D
:10222000020730D570684FF0F80B10F00C0F07D094
:102230007068C0F38100022827D17068C00324D4DD
:1022400097FAA7F0B0FA80F040F02000400901D0E2
:10225000306800E0706A97FAA7F1B1FA81F101F0F5
:102260001F0104FA01F1084202D02869012877D140
:1022700030689BFAABF220F0F8016869B2FA82F29A
:102280009040014331605AE064E1286988B394FAD0
:10229000A4F0B0FA80F048F82040FFF739FA814600
:1022A00006E000BFFFF734FAA0EB090002289AD835
:1022B00097FAA7F0B0FA80F040F02000400901D072
:1022C000306800E0706A97FAA7F1B1FA81F101F085
:1022D0001F0104FA01F10842E4D030689BFAABF226
:1022E0006969B2FA82F220F0F80091400843306048
:1022F00025E0FFE794FAA4F0B0FA80F048F820A0B7
:10230000FFF706FA814605E0FFF702FAA0EB0900A5
:102310000228CCD897FAA7F0B0FA80F040F020005D
:10232000400901D0306800E0706A97FAA7F1B1FA6D
:1023300081F101F01F0104FA01F10842E4D128788B
:1023400000076CD5A869A8B394FAA4F0B0FA80F09D
:1023500008EB8000C0F88044FFF7DAF9814607E017
:10236000A4E100BFFFF7D4F9A0EB090002289ED832
:1023700097FAA7F0B0FA80F040F06000B4EB501F7D
:1023800001D130680BE097FAA7F0B0FA80F040F086
:102390006000B7EB501F01D1306A00E0706A97FA15
:1023A000A7F1B1FA81F101F01F0104FA01F2104224
:1023B000D8D034E0FFE794FAA4F1B1FA81F108EB48
:1023C0008101C1F880A4FFF7A3F9814606E000BFB0
:1023D000FFF79EF9A0EB090002289AD897FAA7F018
:1023E000B0FA80F040F06000B4EB501F01D13068CB
:1023F0000BE097FAA7F0B0FA80F040F06000B7EB7E
:10240000501F01D1306A00E0706A97FAA7F1B1FA63
:1024100081F101F01F0104FA01F21042D8D12878AD
:10242000400768D5F0694FF00009C00009D4F06991
:1024300040F08050F061F0694FF0010900F08050E9
:1024400000902B480168C90512D4016841F48071DD
:102450000160FFF75DF9834606E000BFFFF758F91A
:10246000A0EB0B00642875D821480068C005F5D59D
:10247000E86801280AD008B1052811D0306A20F098
:1024800001003062306A20F0040002E0306A40F05F
:1024900001003062E86868B3FFF73AF983460DE05F
:1024A000306A40F004003062F0E700BFFFF730F917
:1024B000A0EB0B0141F2883081424BD897FAA7F08C
:1024C000B0FA80F040F04000B4EB501F01D130680A
:1024D00013E097FAA7F0B0FA80F040F04000B7EBB5
:1024E000501F09D1306A08E000100240000042424B
:1024F000007000400CE040E0706A97FAA7F1B1FA72
:1025000081F101F01F0104FA01F21042CED02DE05A
:10251000FFF7FEF8834607E0FFF7FAF8A0EB0B01A0
:1025200041F28830814215D897FAA7F0B0FA80F0CE
:1025300040F04000B4EB501F01D130680CE097FA36
:10254000A7F0B0FA80F040F04000B7EB501F02D186
:10255000306A01E083E0706A97FAA7F1B1FA81F17D
:1025600001F01F0104FA01F21042D5D1B9F1000FB8
:1025700003D0F06920F08050F061E86980B37168A1
:10258000C1F38101022977D04FF080714F000228FA
:10259000504609D091FAA1F1B1FA81F148F8210031
:1025A000FFF7B6F805465DE0894691FAA1F1B1FA68
:1025B00081F1C24648F82100FFF7AAF8804605E0FD
:1025C000FFF7A6F8A0EB0800022848D897FAA7F072
:1025D000B0FA80F040F02000400902D0306801E0FD
:1025E00066E0706A97FAA7F1B1FA81F101F01F0174
:1025F00004FA01F10842E3D1D5E9081008437168F3
:1026000021F474110843706099FAA9F0B0FA80F0CF
:102610004AF82040FFF77CF8054604E0FFF778F819
:10262000401B02281BD897FAA7F0B0FA80F040F0C0
:102630002000400901D0306800E0706A97FAA7F1E5
:10264000B1FA81F101F01F0104FA01F10842E5D06D
:102650002EE000BFFFF75CF8401B022802D90320E0
:10266000BDE8F88F97FAA7F0B0FA80F040F02000AC
:10267000400902D0306801E00BE0706A97FAA7F1D8
:10268000B1FA81F101F01F0104FA01F10842E1D130
:102690000EE00128E4D070682A6A00F4803191428B
:1026A00004D1696A00F47010884201D00120D7E794
:1026B0000020D5E770B5040009D0606A002540B15C
:1026C00025616561A56294F85D0040B10CE00120D0
:1026D00070BD6068B0F5827FF4D0E561F2E784F800
:1026E0005C50204600F05CF8022084F85D00206811
:1026F000016821F040010160E1684FF4E06291421D
:1027000001D9002001E04FF48050B1F5706F02D084
:10271000914200D0A562A188228901F4827102F45D
:1027200004421143227C02F002021143227D02F096
:1027300001021143228B02F400721143227F02F046
:102740003802114394F8202002F080021143228DB8
:1027500002F40052114322681160A169042202EAC6
:10276000114194F8242000F4805002F0100211432B
:1027700094F8342002F008021143A28902F4706236
:1027800011430143206841602068C16921F4006160
:10279000C1612566012084F85D00002070BD000045
:1027A000F0B587B0044614216846FEF794F8264A2F
:1027B000216800252548022403260527914216D1C9
:1027C000816941F480518161816901F480510591F1
:1027D000416941F4003141614069694600F40030CB
:1027E0000590E0208DE8F1004FF0904027E0184A76
:1027F000914226D1C16941F48041C161C16901F4AE
:1028000080410591416941F480014161416901F4D0
:1028100080010591416941F4802141614069694627
:1028200000F48020059050158DE8F1000948FEF76E
:1028300085FE4FF440408DE8F10069460648FEF7FA
:102840007DFE07B0F0BD00000030014000100240E6
:102850000038004000140048000400482DE9F05FF3
:10286000044690F85C0000270A9E1D4692468B465F
:102870004FF0010901280ED0012084F85C00FEF71A
:1028800047FF804694F85D00616801280CD0B1F5DF
:10289000827F07D102E00220BDE8F09FA16809B95C
:1028A000042801D0022700E1BBF1000F24D0BAF1C7
:1028B000000F21D005B394F85D00042802D0052054
:1028C00084F85D0000202066C4F840A0A4F84650BB
:1028D000A4F84450C4F838B0E587A587E0642065C3
:1028E000E0684FF4E061884201D8012D06D92068E4
:1028F000426822F4805205E00127D6E02068426851
:1029000042F48052426020680268520603D4026892
:1029100042F040020260E0688842606845D908B130
:10292000012D3AD1A06B21680088C860A06B801C83
:10293000A063E08F401EE0872FE020688168890750
:102940000FD5E18F69B1B9F1010F0AD1A16B0988E7
:10295000C160A06B801CA063E08F401EE0874FF039
:10296000000920688168C9070FD0B4F8461061B12A
:10297000C068216C0880206C801C2064B4F846007C
:10298000401EA4F846004FF00109FEF7C1FEA0EB7F
:102990000800B04201D3701C75D1E08F0028CCD163
:1029A000B4F846000028C8D176E008B1012D6CD1FA
:1029B000E08F0128A06B08D921680088C860A06B4F
:1029C000801CA063E08F801E07E0216800780873F8
:1029D000A06B401CA063E08F401EE08755E020689C
:1029E000816889071AD5E18FC1B1B9F1010F15D1FD
:1029F000E18F0129A16B07D90988C160A06B801CF8
:102A0000A063E08F801E06E009780173A06B401C74
:102A1000A063E08F401EE0874FF0000920688168C6
:102A2000C90728D0B4F8461029B3B4F846100129D4
:102A300014D9C068216C0880206C801C2064B4F814
:102A40004600801EA4F84600B4F84600012810D8BD
:102A50002068416841F4805141600AE0007B216CAC
:102A60000870206C401C2064B4F84600401EA4F896
:102A700046004FF00109FEF74BFEA0EB0800B04204
:102A800002D3701C01D018E0BEB1E08F0028A6D19F
:102A9000B4F846000028A2D142463146204600F054
:102AA000ABFD10B1012720202066012084F85D00D5
:102AB000002084F85C003846EEE60327F5E710B501
:102AC000401EB0F1807F01D3012010BD4FF0E02403
:102AD00060610F21601701F0D9F90020A061072083
:102AE0002061002010BD7047704770470146806F1D
:102AF000C96F0843704700002DE9F04102680446A1
:102B0000D0691168936840F60F0528424FF0000520
:102B100005D1860678D58E0676D5616EF2E0824FB5
:102B200003F001060F4037437ED0C70709D0CF0519
:102B300007D501271762D4F8802042F00102C4F8BB
:102B4000802082070AD5DA0708D0276802223A6275
:102B5000D4F8802042F00402C4F8802042070AD54D
:102B6000DA0708D0236804221A62D4F8802042F0E1
:102B70000202C4F8802002070CD501F02002324383
:102B800008D0236808221A62D4F8802042F0080294
:102B9000C4F8802002050BD54A0109D523684FF4FB
:102BA00000621A62D4F8802042F02002C4F880202B
:102BB000D4F88020002A2FD0800605D5880603D5BA
:102BC000616E09B120468847D4F880002168896881
:102BD000490602D410F0280F20D0204600F01AFF3A
:102BE00020688168490614D5816821F04001816020
:102BF000206F70B14D494163206FFEF7DAFB00286A
:102C00000AD0206F416B01E00EE02046BDE8F041A4
:102C100008472046FFF769FFBDE8F0812046FFF72F
:102C200064FFC4F88050F7E7276E2026012F58D1A3
:102C3000C70656D5CF0654D510201062226890687A
:102C400040062DD5216F086840680004000CE3D0D1
:102C5000B4F858308342DFD9A4F85A008869202894
:102C600017D0106820F4807010602068816821F00F
:102C7000010181602068816821F040018160E66780
:102C800025662068016821F010010160206FFEF7C1
:102C90006DFBB4F85800B4F85A10401A81B21CE029
:102CA000B4F85800B4F85A10401A81B2B4F85A0077
:102CB0000028B1D00029AFD0106820F490701060C7
:102CC0002068826822F001028260E66725666566F8
:102CD0002068026822F0100202602046FFF703FF1E
:102CE0009AE7C70209D55B0207D54FF4801010623E
:102CF0002046BDE8F041FFF7F7BE030605D50B06F9
:102D000003D5A16E002980D186E7400684D5480608
:102D100082D51168204621F040011160A667A566A2
:102D200000F03DF978E7000020010004013A0008B6
:102D300010B5040002D0A06F10B107E0012010BD53
:102D4000002084F87400204600F026F82420A067B4
:102D50002068016821F001010160204600F0EEFECC
:102D60000128ECD0606A10B1204600F0B7FD206861
:102D7000416821F4904141602068816821F02A0176
:102D800081602068016841F0010101602046BDE8D2
:102D9000104000F007BE000070B586B00446142154
:102DA0006846FDF798FD264E256800212548022239
:102DB00003230724B5421BD1856945F4804585610D
:102DC000856905F480450595456945F4002545610B
:102DD000406902AD00F40020059085E81A0030201B
:102DE000CDE9000269461848FEF7A8FB06B070BDA1
:102DF000164EB542FAD1C56945F40035C561C569BD
:102E000005F400350595456945F40035456140698F
:102E100002AD00F40030059085E81A000C20CDE9E1
:102E2000000269464FF09040FEF788FB2620FEF72F
:102E300007FF032211462620FEF710FFD6E7000009
:102E400000380140001002400008004800440040E3
:102E500010B4C36F202B18D1A1B19AB190F874307F
:102E6000012B12D0012380F874300023036603681D
:102E70005C68240203D51C6844F080641C6010BCAC
:102E800000F040BF012010BC70470220FBE70000AB
:102E900030B50068114988420CD1114841880A04B4
:102EA00008D402464C0412784FF0000306D50A2AD3
:102EB00001D0438030BD41F400410DE00D2A09D01E
:102EC000C1F30D04074D491C89B22A554180C72919
:102ED000EFD830BD41F48041418030BD0044004016
:102EE000AC0000201C5F00202DE9F8430446806FF1
:102EF0001F4616460D4620284FD1CDB1C6B194F8D5
:102F00007400012849D0012084F874004FF00008B3
:102F1000C4F880802120A067FEF7FAFBA4F8506077
:102F20008146A4F85260A068B0F5805F03D004E049
:102F30000120BDE8F883206928B12E465FF0000526
:102F400084F8748010E00026FAE78021204600F023
:102F500017FFB8B9C6B116F8010B21680885B4F897
:102F60005200401EA4F85200B4F852004B464FF0F5
:102F7000000200970028E8D14FF04001204600F001
:102F8000FFFE30B10320D4E735F8020BC0F3080090
:102F9000E3E72020A0670020CBE70220C9E77047C5
:102FA000FEB51C4615460E46074602F097F84FF050
:102FB000FF300094CDE90150012000EB47010346AA
:102FC00032460348FEF75AFC02F096F80020FEBD98
:102FD000085E0020FEB51C4615460E46074602F068
:102FE0007DF84FF0FF300094CDE9015079000123C6
:102FF00032460348FEF7F4FC02F07EF80020FEBDE6
:10300000085E002001688A69D243920701D4002239
:103010008A6200688169C943C90703D0816941F0A8
:1030200001018161704700002DE9F041044600680C
:1030300090460E468069C043C00633D40025202741
:1030400020688069C043800615D5701CF8D0FEF753
:103050005FFBA0EB0800B04201D8002EF0D154F87D
:10306000440F40F0200044F804096770A5702570F3
:103070000120BDE8F08121681020C8612068C76187
:103080002046FFF7BFFF54F8440B4168064A114041
:103090004160206840F0040044F820096777A57774
:1030A0002577E5E70020E4E700E800FE2DE9F84396
:1030B00004461646DDE9089714489846DAB20090AF
:1030C0000023204600F056F83A464946204600F0D4
:1030D000B9F8B8B9F5B2B8F1010F08D02168300AD3
:1030E00088623A464946204600F0ACF850B920685C
:1030F00085624B46002240212046009700F050F8A0
:10310000002800D00120BDE8F883000000200080E6
:103110002DE9F8430446164615489846DDE9089718
:10312000DAB2C3020090204600F024F83A4649463D
:10313000204600F087F8B8B9F5B2B8F1010F08D011
:103140002168300A88623A464946204600F07AF8FB
:1031500050B9206885624B460022802120460097A6
:1031600000F01EF8002800D00120BDE8F883000020
:1031700000200080F0B50568059C68684FF4806603
:10318000064FC1F3090106EA545641EA02413E43A3
:103190001943B043214308436860F0BDFF63FF0358
:1031A0002DE9F0411D4617460E460446DDF818800D
:1031B00008E0681C06D0FEF7ABFAA0EB0800A842B6
:1031C0000BD855B12068806936EA000012D0002083
:1031D000B842EED00020BDE8F08154F8440F40F032
:1031E000200044F80409202060700020A0702070A6
:1031F0000120F0E70120EBE770B516460D460446C6
:103200000DE0324629462046FFF70EFF08B10120A7
:1032100070BDFEF77DFA801BA84207D835B1206843
:103220008069C0438006ECD4002070BD54F8440F80
:1032300040F0200044F80409202060700020A070B5
:103240002070E4E770B516460D4604460FE032469E
:1032500029462046FFF7E8FE08B1012070BD681C32
:1032600005D0FEF755FA801BA84207D835B1206873
:103270008069C0438007EAD4002070BD54F8440F31
:1032800040F0200044F80409202060700020A07065
:103290002070E2E72DE9F04786B014216846FDF77B
:1032A0001AFB5048416941F400114161416901F440
:1032B00000110591416941F400214161416901F426
:1032C00000210591416941F480014161416901F4A6
:1032D00080010591416941F400314161416901F486
:1032E00000310591416941F480214161416901F456
:1032F00080210591416941F4801141614069DFF805
:10330000E88000F480104FF60875059000222946E9
:103310004046FEF7F7F9DFF8D4A04FF4E04600226C
:1033200031465046FEF7EEF9DFF8C4904FF4F057FF
:10333000002239464846FEF7E5F9372000902D482F
:103340000024CDE9010469464046FEF7F7F80095F0
:103350000125CDE90154694640460394FEF7EEF895
:10336000CDE900544FF09048694640460294FEF77C
:10337000E5F8E80200902048CDE90105694650468D
:10338000FEF7DCF80096CDE90154694650460394F7
:10339000FEF7D4F80097CDE90154694648460394F6
:1033A000FEF7CCF84FF4C05000900220CDE90104A4
:1033B000032003900E20049069464046FEF7BEF8B5
:1033C000CDE90054694650460294FEF7B7F8002252
:1033D00002212820FEF742FC2820FEF731FC06B02F
:1033E000BDE8F0870010024000100048000C0048C3
:1033F000000800480000121000002110134810B50A
:10340000114901601249416000210122C0E9021204
:10341000016141618161C1610162FEF7D3F908B1C7
:10342000FDF7A2FF00210948FEF778F908B1FDF782
:103430009BFF00210548FEF79CF9002803D0BDE85A
:103440001040FDF791BF10BD00540040085E002001
:103450000E090020124810B5104901604FF4827126
:10346000416000214FF44072C0E902124FF4007233
:103470000161C0E905120822C0E907210723416262
:10348000C0E90A13C0E90C12FFF714F9002803D0B1
:10349000BDE81040FDF768BF10BD000000300140DE
:1034A000545E002010B5134C11484FF4E0612060C9
:1034B0004FF4827060600020C4E902010121C4E978
:1034C00004014902C4E90610206207216062C4E9D0
:1034D0000A01206360632046FFF7ECF808B1FDF7AE
:1034E00043FF2068016841F04001016010BD000009
:1034F00000380040B85E00200D4810B50B4901604F
:103500004FF4E1314160002181600C22C160C0E9CB
:1035100004128161C16101624162FFF709FC002868
:1035200003D0BDE81040FDF71FBF10BD00380140BB
:10353000E45F00200F4810B50D4901604FF4E13100
:103540004160002181600C22C160C0E904128161E8
:10355000C16101624162FFF7EBFB08B1FDF704FFB7
:10356000BDE81040012204490248FFF771BC000089
:103570000044004068600020AC000020FEE7FEE749
:1035800001B582B001F0AAFD4FF47A7000900123DA
:1035900001AA02A90348FFF761F901F0ADFD9DF80A
:1035A00004000EBDB85E00200EB501F097FDFF20AF
:1035B0008DF804004FF47A700090012302AA01A94B
:1035C0000348FFF74BF901F097FD9DF808000EBD89
:1035D000B85E002001B582B001F080FD4FF47A7032
:1035E0000090012301AA02A90248FFF737F901F070
:1035F00083FD0EBDB85E0020F8B515460E460B469D
:103600000092044600224FF4C05100F019F888B926
:103610003346002280212046009500F075F848B915
:10362000334600224FF4C0612046009500F008F8B0
:10363000002804D0206E40F0200020660320F8BD52
:103640002DE9F84F994617460E4604460A9DFEF7A7
:103650005FF8411BA9EB0105FEF75AF8804629489F
:103660004FF4C06A0068C0EBC00000EB8000000DA2
:10367000684300903FE0564501D107B9007BB9F19E
:10368000FF3F38D0FEF744F8A0EB0800A84203D271
:1036900015B1009860B32CE02068416821F0E0018A
:1036A00041606068B0F5827F0BD1A068B0F5004F33
:1036B00002D0B0F5806F04D12068016821F040018C
:1036C0000160A06AB0F5005F09D12068016821F4AB
:1036D000005101602068016841F40051016001203F
:1036E00084F85D00002084F85C000320BDE8F88FBA
:1036F0000025401E0090206881683140B942BAD14F
:103700000020F3E7BC0000202DE9F8431E46914657
:1037100088460446089DFDF7FBFF401B351AFDF760
:10372000F7FF074625480068C0F3CB30684338E010
:10373000701C37D0FDF7ECFFC01BA84203D215B1B7
:10374000009860B32CE02068416821F0E0014160FE
:103750006068B0F5827F0BD1A068B0F5004F02D051
:10376000B0F5806F04D12068016821F0400101604C
:10377000A06AB0F5005F09D12068016821F400510A
:1037800001602068016841F400510160012084F863
:103790005D00002084F85C000320BDE8F88300256C
:1037A000401E00902068816838EA010004D00021A2
:1037B0004945BDD10020F0E70121F9E7BC00002018
:1037C00010B501F001FE02F05BF9FEF7E7F9BDE884
:1037D000104001F007BE30B59FB028210FA8FDF7BB
:1037E0007AF8142119A8FDF776F83C216846FDF710
:1037F00072F803200F904FF4A0200024CDE91004AC
:10380000012013901020149002250003CDE91650DA
:103810004FF4E01018900FA8FEF768FC08B172B6DC
:10382000FEE70F20CDE919054FF48060CDE91B407C
:10383000022119A81D94FEF74FFB08B172B6FEE7EE
:10384000232002940090039407946846FEF738FA08
:10385000002801D072B6FEE71FB030BD30B5164962
:103860004868164A10F00C03154803D0042B01D009
:10387000082B01D0026015E04B684C6803F470130C
:103880004FF0020514F4803F05EB934307D0CC6A58
:1038900004F00F04641CB2FBF4F25A43EAE7094A4D
:1038A000534303604968084AC1F30311515C02683D
:1038B000CA40026030BD00000010024000127A00D1
:1038C000BC00002000093D00746500080248016842
:1038D00041F470010160704788ED00E090F8241019
:1038E000C90706D001684A68836A22F400321A4385
:1038F0004A6090F82410890706D501684A68C36AAF
:1039000022F480321A434A6090F82410490706D501
:1039100001684A68036B22F480221A434A6090F8D7
:103920002410090706D501684A68436B22F4004257
:103930001A434A6090F82410C90606D501688A68BF
:10394000836B22F480521A438A6090F8241089060F
:1039500006D501688A68C36B22F400521A438A6054
:1039600090F82410490611D501684A68036C22F4C6
:1039700080121A434A60016CB1F5801F06D10168BC
:103980004A68436C22F4C0021A434A6090F824103B
:10399000090606D501684A68806C22F400220243B9
:1039A0004A607047F8B500260446C0F88060FDF70D
:1039B000AFFE0546206800686FF07E47000708D517
:1039C0002B4600224FF400112046009700F0D8F952
:1039D00060B92068006840070AD52B4600224FF4E2
:1039E00080012046009700F0CBF908B10320F8BD14
:1039F0002020A067E067266684F874600020F8BD88
:103A000010B5406A0021A0F85A10A0F85210FFF734
:103A10006CF810BD01680A6822F490720A600168AF
:103A20008A6822F001028A60016E012904D10168CE
:103A30000A6822F010020A602021C1670021016695
:103A40004166704770B5B0F85C10C26F04460068FC
:103A5000222A04D0816941F00801816170BD808C07
:103A6000626D08401080606D801C6065B4F85A007B
:103A7000401EA4F85A00B4F85A000028EED120687D
:103A8000016821F4907101602068816821F00101D2
:103A900081602020E06700256566206E012804D043
:103AA0002046FFF7F5F9256670BD2068016821F012
:103AB00010010160B4F858102046FFF714F8F2E73F
:103AC00070B5B0F85C10C26F04460068222A04D0BA
:103AD000816941F00801816170BD808C0840616D91
:103AE0000870606D401C6065B4F85A00401EA4F870
:103AF0005A00B4F85A000028EED12068016821F479
:103B0000907101602068816821F0010181602020AE
:103B1000E06700256566206E012804D02046FFF787
:103B2000B7F9256670BD2068016821F010010160B9
:103B3000B4F858102046FEF7D6FFF2E770B50446F9
:103B400080682169E26908436169002511432268A0
:103B50000843116849F20C639943014311602068DE
:103B60004168E26821F4405111434160216AA06933
:103B700001432068826822F430620A4382605A4A14
:103B800020685A4990420CD1086B10F0030006D00F
:103B900001285FD002285FD0032845D158E00121D9
:103BA00043E0534A90420DD1086B10F440304DD0A1
:103BB000B0F5803F4ED0B0F5003F4DD0B0F5403F5E
:103BC00032D145E04B4A90420DD1086B10F44020B1
:103BD0003CD0B0F5802F3DD0B0F5002F3CD0B0F5F3
:103BE000402F21D134E0444A90420DD1086B10F4AB
:103BF00040102BD0B0F5801F2CD0B0F5001F2BD07B
:103C0000B0F5401F10D123E03C4A90420CD1086B24
:103C100010F440001AD0B0F5800F1BD0B0F5000FA3
:103C20001AD0B0F5400F13D01021E3694FF40040D3
:103C3000334A4FF6EF7683422ED109294AD2DFE884
:103C400001F00D1013491549494918000021ECE70E
:103C50000221EAE70421E8E70821E6E7FEF7E0F9B8
:103C600006E0FEF7F5F903E0104602E0FEF708FA79
:103C700088B34100606801EB5001B1FBF0F081B204
:103C8000A1F11000B04225D84FF6F07201EA02000F
:103C9000C1F3420108431FE009291BD2DFE801F00C
:103CA00005080B1A0D1A1A1A1000FEF7B9F906E0EA
:103CB000FEF7CEF903E0104602E0FEF7E1F950B15D
:103CC000616800EB5100B0FBF1F080B2A0F110018F
:103CD000B14201D9012501E02168C8600020606679
:103CE000A066284670BD0000003801400010024068
:103CF0000044004000480040004C0040005000409C
:103D000000127A0010B54165A0F85820A0F85A209A
:103D10000021416682684FF48054FF23A24204D1FF
:103D2000026922BB40F2FF121EE0D2B1A0F85C1083
:103D3000C0F880102222C2670268936843F0010332
:103D400093608268A24201D102699AB10A4A42662E
:103D500080F874100068016841F4907101600020DF
:103D600010BD02691AB17F22A0F85C20E0E7A0F83C
:103D70005C30DDE7014AEAE7C13A0008453A00084D
:103D80002DE9F0479A4617460E4604464FF00009C3
:103D90004FF02008089D39E0681C37D0FDF7B8FCCB
:103DA000A0EB0A00A84222D80DB320680168490799
:103DB0002CD5C069C043000528D421684FF40060A9
:103DC00008622068016821F4D07101602068816870
:103DD00021F001018160C4F87880C4F87C80C4F8C7
:103DE000808000BF84F874900320BDE8F0872068CD
:103DF000016821F4D07101602068816821F001011F
:103E00008160C4F87880C4F87C80EBE72068C069E2
:103E100036EA000004D00020B842BDD00020E4E71C
:103E20000120F9E770B500240C4D0D48FEF764FE43
:103E300002E0641CAC4204D80948FEF757FE202873
:103E4000F7D1002402E0641CAC4206D801220549E7
:103E50000348FEF7FDFF0028F5D170BDFFFF01000C
:103E600068600020AC000020FEE700000FB4054BA6
:103E700010B503A9044A029800F016F910BC5DF8C9
:103E800014FB00000D4A0008280100200907090E54
:103E9000002804DB00F1E02080F80014704700F0F7
:103EA0000F0000F1E02080F8141D7047002807D0B3
:103EB0000E4910F0FF0F04D051FA80F00078401C3A
:103EC000704710F47F4F04D0C0F30720085C09301E
:103ED000704710F47F0F04D0C0F30740085C113026
:103EE000704701EB10600078193070478C6500084E
:103EF00002E008C8121F08C1002AFAD170477047B3
:103F0000002001E001C1121F002AFBD17047000010
:103F10002DE9FF5F82B00021DDE90430020DDDF8FC
:103F200040B0034318D044F61050A2F2FF3242438F
:103F30001514119801281FD0A5EB0B00401C5FEA57
:103F4000000A4FF000064E4FDFF83891B046504659
:103F500015D5CAF1000413E0119801244AA30128E1
:103F600001D16FEA0B010298119AC0E90031C0E952
:103F7000024206B0BDE8F09FCBF10000DFE7044647
:103F80000021404A491842EB0450CDE9001012E0EC
:103F9000E00707D032463B4640464946FCF74DFD18
:103FA0008046894632463B4610461946FCF745FD99
:103FB00006460F466410002CEAD1DDE90401DDE974
:103FC0000023BAF1000F06DAFCF737FD42464B46F4
:103FD000FCF733FD05E0FCF7A2FD42464B46FCF73B
:103FE0009EFD04460E460022284BFCF72BFF03D80B
:103FF0004FF0FF30014607E00022254B20463146B6
:10400000FCF774FCFCF705FF102409E0002C0ADB28
:104010000A220023FCF717FC039B30321A55641E5A
:1040200050EA0102F2D1641C039AC4F11103144452
:10403000119A012A03D0012208430DD10AE0084356
:1040400004D000204FF0110B119072E7A3EB0B0589
:104050006D1E0DE05B4504DD4FF0000205F101052A
:1040600004E003DA4FF00002A5F10105002AECD0CC
:1040700002981199C0E90231C0E9004579E70000D2
:10408000000014400000F03F300000000000F0434A
:104090000000E03F03480168814201D001207047E1
:1040A00000207047040100202DE9FF4F95B09A468B
:1040B000884606460025EEE1252877D100242746CC
:1040C000F94A0121039400E0044316F8013F203B24
:1040D00001FA03F01042F7D130782A2811D06FF09E
:1040E0002F033078A0F13002092A16D8039A44F041
:1040F000020402EB820203EB42021044761C03909E
:10410000EFE758F8042B0392002A03DA504244F4F4
:104110000054039044F00204761C30782E2816D107
:1041200016F8010F44F004042A280DD06FF02F0276
:104130003078A0F13003092B09D807EB870302EB95
:104140004303C718761CF3E758F8047B761C3078D5
:104150006C280FD006DC4C2817D068280DD06A28B0
:1041600014D104E0742810D07A280FD10DE044F463
:1041700000140AE044F4801401E044F4401472781E
:10418000824202D104F58014761C761C30786628B1
:104190000BD013DC582877D009DC002875D04528CF
:1041A000F6D04628F4D047281AD193E118E06328C6
:1041B00035D0642879D0652812D18BE1702873D06E
:1041C00008DC6728F1D069286FD06E280DD06F28E1
:1041D00006D1ACE073282CD0752874D0782853D041
:1041E0005246179990476D1C54E1C4F302500228BF
:1041F00009D003280DD0D8F8001004280DD00D6088
:1042000008F1040846E1D8F80010EA17C1E90052A5
:10421000F6E7D8F800100D80F2E70D70F0E718F817
:10422000041B8DF8001000208DF80100EB460120E2
:1042300003E058F804BB4FF0FF3061074FF0000176
:1042400002D40DE009F101018946B9420FDA814536
:10425000F8DB1BF809100029F4D108E009F101018D
:1042600089468142FADB1BF809100029F6D1039830
:104270005346A0EB090721463846179A00F080FA0A
:10428000284400EB090507E044E008E10DE01BF8D5
:10429000010B524617999047B9F10109F7D25346DD
:1042A00021463846179AF2E039E00A21C4F3025257
:1042B0004FF0000B0091022A06D058F8040BC117EA
:1042C000032A09D00AE023E008F1070020F00702E2
:1042D000F2E80201904605E000B2C117042A01D1BC
:1042E00040B2C117002906DA0A460021404261EBBC
:1042F00002012D2202E0220504D52B228DF8042094
:10430000012203E0E20701D02022F7E7914657E0BF
:104310000A2100E010214FF0000B00910BE010216A
:104320004FF0000B44F004040827009103E008203C
:104330004FF0000B0090C4F30252022A05D058F847
:10434000040B0021032A08D008E008F1070020F040
:104350000702F2E80201904603E080B2042A00D18D
:10436000C0B24FF0000922072AD53278702A07D050
:10437000DDF800C08CF0100C5CEA0B0C05D00EE0F0
:1043800040228DF80420012208E050EA010306D003
:1043900030238DF804308DF8052002229146009BD1
:1043A00083F0080353EA0B030AD150EA010201D15A
:1043B000620705D530228DF804204FF001097F1ED9
:1043C0003278582A04D039A20C920CAA02920BE03F
:1043D0003BA2F9E75B46009AFCF735FA0C9B9B5C25
:1043E000029A521E0292137050EA0102F2D1029810
:1043F00004A9081A00F1200B600702D524F48034C8
:1044000000E001275F4502DDA7EB0B0000E0002084
:1044100000EB0B01009003984944401A0390E0031D
:1044200006D453462146179A039800F0A9F905448B
:10443000002706E001A85246C05D179990476D1C01
:104440007F1C4F45F6DBE0030CD553462146179AF7
:10445000039800F095F9054404E03020524617997E
:1044600090476D1C0099481E00900029F5DC08E07B
:104470000298029952460078491C02911799904778
:104480006D1CBBF10001ABF1010BF1DC5BE100F055
:1044900065F90544761C307800287FF40DAE19B01C
:1044A0002846BDE8F08F0000092801003031323382
:1044B0003435363738396162636465660000000060
:1044C000303132333435363738394142434445464A
:1044D00000000000600700D4062708F1070020F064
:1044E0000700F0E80223804603F0004C5FEA0C006E
:1044F00001D097A009E0200501D596A005E0E007CE
:1045000001D095A001E0AFF24C001390307823F079
:10451000004365280CD006DC452809D046281DD06C
:1045200047287FD13BE0662818D067287AD136E04B
:104530000021112F01DB112000E0781CCDE90001E2
:1045400004A90CA8FFF7E4FCDDE90D010C9A4FF07B
:10455000000B07F10109109200914EE04FF000406E
:104560000097CDE9011004A90CA8FFF7D1FCDDE903
:104570000D020C9B0F994FF0000B91461093009287
:1045800011B9791C00EB0109B7EB090003D4C0F1A4
:10459000FF3B07F10109A9EB0700019042E0012F61
:1045A00000DA01270021112F01DD112000E038463B
:1045B000CDE9000104A90CA8FFF7AAFCDDE90D0173
:1045C0000C9A00914FF0000BB946109221070FD4BE
:1045D000009A4A4503DA914601E0A9F10109B9F1CF
:1045E000010F05DD109AA9F10101515C3029F4D0C9
:1045F000B84202DA10F1040F03DA0121CDE901100B
:1046000010E0002803DC8344A9EB000102E0411C18
:10461000494500DD8946A0EB0B00401C01904FF09E
:1046200000400290200705D40198484502DB4FF076
:10463000FF30019000208DF84B0002980DF14B07E0
:10464000B0F1004F25D002200C902B200D90029845
:1046500000280CDA404202902D200D9007E00A213C
:104660000298FCF70BFB3031029007F8011D0C9902
:10467000481E0C900029F2DC02980028EFD1791E28
:104680000D980870307800F0200040F0450007F8E1
:10469000020D11A8C01BC01D02901398007800B134
:1046A000012000EB0901019801EBE071029801443F
:1046B0000398401A401E0390E00306D45346214657
:1046C000179A039800F05CF805441398007818B125
:1046D0005246179990476D1CE00323D55346214657
:1046E000179A039800F04CF805441BE0BBF1000F4B
:1046F00007DB0098584504DD1098179910F80B0057
:1047000001E0179930205246904701980BF1010BB8
:10471000401E05F10105019004D12E205246179943
:1047200090476D1CB9F10001A9F10109DEDC05E03B
:1047300017F8010B5246179990476D1C0299481EB5
:1047400002900029F4DC53462146179A03989EE60E
:104750002D0000002B000000200000002DE9F0419A
:10476000044600251E461746880404D405E0394651
:104770002020B0476D1C641EF9D52846BDE8F081A5
:104780002DE9F041044600251E469046C80301D598
:10479000302700E02027880404D505E0414638464C
:1047A000B0476D1C641EF9D52846BDE8F0810000B5
:1047B0002DE9FC411F460446DDE90831DDE90A65C3
:1047C000143040600060C4E90827C4E90A310A4691
:1047D000232118461C3400F03BFED4E903014218A3
:1047E000D4E90101104B121F00F0D0FD44F81A0B60
:1047F000002004F801690D4A04F8036BE4E802059F
:1048000044F8105901C404F83C0B01C444F874097D
:10481000009023460190194604F1440001F0A2F9EA
:104820000020BDE8FC81000085570008BF59000842
:10483000F0E905124A60D0E90012116040600060A2
:104840007047000010B500EB8102006852F8042C9C
:10485000491E101A90FBF1F0FCF7D0F941EC100B57
:1048600053EC102B9FED080B51EC100BFCF757F994
:104870009FED071B53EC112BFCF7DFF8FCF7E2F977
:1048800000EE100A10BD00000000000000004E40C5
:10489000000000000080514002E00E21491EFDD2C0
:1048A000401EFAD27047000086B04FF4967A4FF05F
:1048B00000093A4C4FF47A7502E0284600F0FCFFFC
:1048C000A0680028F9D0DFF8D880002700F006FCA7
:1048D000C4F8288094ED100AA269E069BDEEC00A10
:1048E00010EE101A891A00EBD07201EB6201B422AB
:1048F000514391FBF0F12BA0FFF7B8FA01F004FB54
:1049000000F0FAFB082000F0D7FF2078012840D102
:1049100000F0E4FB2648A062E06AFCF780F9054657
:104920000E46206CFCF77BF941EC100BD4E9032117
:10493000A06CCDE90221CDE90056049053EC102B78
:104940001CA0FFF793FA00F0D7FB2049606A94EDB2
:10495000100A01EB8001401C81ED000A53466062A1
:10496000984214DDA069194A00F57A700B4900904D
:10497000443102F57A6000F04AF91548616CFFF79E
:1049800061FFBDEEC00A84ED120AC4F8249084F8D9
:1049900000907F1CB42F99DB97E700005C0000209B
:1049A0006860002061646420312C302C2564000094
:1049B000E45F0020252E30662C252E32662C256CD7
:1049C000642C256C642C25640D0A0000D838002066
:1049D0007848002038B504004FF0FF3506D06A460D
:1049E00004214FF4587000F04BFA08B1284638BD46
:1049F000BDF800009DF8021040BA000440EA012012
:104A00009DF8031008432060002038BD13B5054809
:104A10004FF6FF7301226946806AFEF765FA009837
:104A20001CBD00005C00002008B5012000220346E8
:104A3000009011461046FCF75FFA0122540221460D
:104A40000B48FCF75FFE0B4E4FF4FA75002221462F
:104A50003046FCF757FE284600F02EFF0122214683
:104A60003046FCF74FFE284600F026FFEEE7000038
:104A700000080048001000481FB5FEF70BFCFEF7C9
:104A8000BDFCFEF7E7FCFEF737FDFEF753FDFEF732
:104A900009FD3F4C00202070FCF74EFA60693D4B49
:104AA00000903D4A812103F58160FBF7BEFE6069FD
:104AB0003A4B00903A4A812103F50470FBF7B5FEAA
:104AC0006420FCF79BFCFCF79DFB6420FCF796FC44
:104AD0001E200390334916254FF480648DE8320080
:104AE00030480023304A31A1783800F0CDFE18B9A3
:104AF0002C48783800F02CFF01261B204FF4FA5187
:104B00002D4ACDE90206CDE900212B4800232B4A8E
:104B10002BA1783800F0B8FE18B92748783800F093
:104B200017FF1A20CDE902062849CDE900142748CD
:104B30000023274A27A1783800F0A6FE18B9234899
:104B4000783800F005FF41F2883625481427CDE972
:104B50000006CDE902570023224A23A1783800F04D
:104B600093FE18B91E48783800F0F2FE2048002362
:104B70008DE8B1001F4A20A1783800F085FE18B9F1
:104B80001B48783800F0E4FE304600F095FEFBE765
:104B90005C000020B834002050630008BC360020C0
:104BA0004C610008D0010020294A00086C6564535C
:104BB00068696E650000000048060020695F000813
:104BC00075706C6F616444617461000000260020A0
:104BD000A9480008646973706C617944617461006C
:104BE000804A0020954C00086D70753630353000D5
:104BF000782A0020055000087265637561727400A0
:104C000010B500F05DFABDE81040FFF735BFF0B514
:104C10000025DDED050A01245F1E0D6037E002EB83
:104C20008405B8EEE01A95ED000AB4EEC10AF1EE83
:104C300010FA2BDD15ED011AB4EEC10AF1EE10FAEF
:104C400024DD012600E0761CA5199D4208DA02EB5E
:104C5000850C9CED001AB4EE410AF1EE10FAF2D088
:104C6000264402EB860696ED001AB4EEC10AF1EE78
:104C700010FA09DD26460C684FEA840C641C0C60AF
:104C800040F80C606C1C02E02C4600E0641CBC4246
:104C9000C5DBF0BD2DED0C8B554D4FF47A7402E061
:104CA000204600F009FEA8680028F9D000F016FAA6
:104CB0005048A86250A0FFF7D9F800F01DFA012271
:104CC000D1035448FCF71EFD534F9FED54AB9FEDAD
:104CD00055BB9FED56CB9FED57DB45480C30FFF79A
:104CE00079FE00282AD1E8684D2148436421B0FBB1
:104CF000F1F0286100F0F2F95048A86250A0E9688C
:104D0000FFF7B4F801F000F9E86AFBF788FF41EC1F
:104D1000100B4FA053EC102BFFF7A8F801F0F4F89C
:104D20004FA0A96CFFF7A2F801F0EEF850A0296996
:104D3000FFF79CF801F0E8F800F0DEF93C682C631E
:104D40002046FBF76CFF41EC180B2046FBF767FF92
:104D500041EC190B2046FBF762FF53EC1A2BFBF7D3
:104D60006CFE53EC192BFBF768FE53EC182BFBF78A
:104D700064FEFBF767FF06462046FBF750FF41EC59
:104D8000180B2046FBF74BFF53EC1B2BFBF755FE94
:104D900053EC182BFBF751FE41EC180B3046FBF798
:104DA0003EFF53EC182BFBF7A1FDFBF74BFF06462C
:104DB0002046FBF734FF53EC1C2BFBF73EFE41EC87
:104DC000180B3046FBF72BFF53EC182BFBF78EFD2F
:104DD000FBF738FFFBF723FF53EC1D2BFBF786FD9A
:104DE000FBF730FFE862322000F066FD75E7000057
:104DF0005C000020E45F0020496E697469616C69A1
:104E00007A696E6720537465702043616C636572C4
:104E10000D0A0000001000482C01002070D05E7DBB
:104E20003CF4FCBF5F419AB1689A0AC09031772D7B
:104E300021AD66C06688635DDCB2694068600020B1
:104E4000737465702E7478743D22256C64220000A2
:104E500074656D702E7478743D2225662200000002
:104E6000626561742E7478743D222564220000000E
:104E7000646973742E7478743D22256C642200007A
:104E8000F8B516000D464FF0FF371FD0104CA17A31
:104E9000E1B1010A8DF80010C0B28DF8010041198E
:104EA00060684289914211D8216800786B46097E7A
:104EB0000222FEF78FF848B92068EAB23346417DF6
:104EC00060680078FEF76CF8002800D03846F8BD1E
:104ED000000000202DE9F04F85B09946DDE90EA5D0
:104EE000109CAB46630602D5DFF814C103E0DFF87F
:104EF00010C1ACF1110CE30601D524F00104E30765
:104F000001D0302300E0202300260493A3070BD513
:104F1000002A02DA2D26524206E0630701D52B262D
:104F200002E0230700D520260023EE4622B93022D6
:104F30008DF8002001230CE0B9F10A0F14D002F023
:104F40000F0812091CF808800EF803805B1C002A69
:104F5000F2D1AB4200DD1D46AAEB050214F0110FA1
:104F60004FF0200708D015E00A27B2FBF7F807FB3F
:104F70001828B2FBF7F2E5E73EB1002A05DD521E24
:104F800003E0884200D20770401CB2F1000CA2F18D
:104F90000102F6DC26B1884200D20670401C521E87
:104FA000E40605D508E0884201D2049C0470401C48
:104FB000141EA2F10102F6DC30242E466D1E9E4224
:104FC0000ADD884200D20470401CF6E7884201D214
:104FD000E55C0570401C00E074461D1EA3F1010352
:104FE00007DDBBF1000FF1D103E0884200D207706A
:104FF000401C131EA2F10102F7DC05B0BDE8F08FE2
:105000009D660008124C134DDFF84C80DFF84C9081
:1050100000274FF400664FF4FA7A2088000413D575
:10502000012231462846FCF76DFB00F057F80CA032
:10503000C9F82880FEF71AFF00F05EF8002231461A
:105040002846FCF75FFB2780504600F035FCE4E77C
:10505000AE00002000100048E45F00205C0000204B
:1050600070726573732100001FB50A4C14230A2265
:105070004FF48061A4F580608DE80F000023064A9C
:1050800006A1204600F000FC04B02046BDE8104018
:1050900000F05EBCF0640020014C00086D61696E98
:1050A0000000000070B5044C044D02E02068804709
:1050B000241DAC42FAD370BDB4660008B86600087F
:1050C00070B5044C044D02E020688047241DAC42BA
:1050D000FAD370BDB8660008BC66000810B5FBF7CF
:1050E00071F8044A5188491C5180BDE81040FBF713
:1050F0006DB80000F800002010B5FBF763F80B4C0A
:105100006188491E09B2618000290ADC00216180A2
:10511000FBF75CF86068002807D0BDE8104000F09D
:105120000FBABDE81040FBF751B810BDF8000020E1
:1051300010B5FCF73BFDFEF74EFBFEF78FFB0C486E
:105140004FF47A710068B0FBF1F0401EB0F1807F3F
:1051500009D24FF0E021074A4861FF20107000207B
:10516000886107200861BDE81040FFF79BBF000081
:10517000BC00002023ED00E07047000070B52F490F
:105180000546283009682C1D11B18847002853D0E6
:105190002BA0216C00F034F92DA0616A00F030F9E9
:1051A0002FA0A16A00F02CF931A0E16A00F028F9E3
:1051B00033A0216B00F024F935A0616800F020F9DC
:1051C00037A0A16800F01CF939A0E16800F018F9D7
:1051D0003BA0216900F014F93DA0616900F010F9CD
:1051E0003FA0A16900F00CF941A0E16900F008F9C5
:1051F00043A0216A00F004F945A0616B00F000F9BA
:1052000047A0A16B00F0FCF849A0E16B00F0F8F8B2
:105210002878400706D500F075FB014648A000F04D
:10522000EFF802E04EA000F0EBF82878C00602D4B8
:1052300052A000F0E5F8FEE770BD00001801002064
:105240007073723A203078253038780A00000000F8
:105250007230303A203078253038780A000000006B
:105260007230313A203078253038780A000000005A
:105270007230323A203078253038780A0000000049
:105280007230333A203078253038780A0000000038
:105290007230343A203078253038780A0000000027
:1052A0007230353A203078253038780A0000000016
:1052B0007230363A203078253038780A0000000005
:1052C0007230373A203078253038780A00000000F4
:1052D0007230383A203078253038780A00000000E3
:1052E0007230393A203078253038780A00000000D2
:1052F0007231303A203078253038780A00000000CA
:105300007231313A203078253038780A00000000B8
:105310007231323A203078253038780A00000000A7
:10532000206C723A203078253038780A000000006E
:105330002070633A203078253038780A0000000069
:1053400068617264206661756C74206F6E20746889
:10535000726561643A2025730D0A0D0A0000000091
:1053600068617264206661756C74206F6E2068617C
:105370006E646C65720D0A0D0A00000046505520DF
:10538000616374697665210D0A00000070B50446FA
:10539000121D22F0070000220A4D443840F8225026
:1053A000521C112AFAD3416200218162C16200F1CC
:1053B0003402016382E81A004FF0807303640160D5
:1053C00070BD0000EFBEADDE10B5FAF7FBFE044A7B
:1053D0001178491C1170BDE81040FAF7F7BE0000C3
:1053E000C400002010B5FAF7EDFE044A1178491EFA
:1053F0001170BDE81040FAF7E9BE0000C4000020BB
:105400000FB47F2110B503AB0448029A00F020FCD2
:105410000248FFF7B1FE10BC5DF814FB6066002087
:105420000268516002680A60016048607047026863
:10543000516002680A60016048607047D0E900125C
:105440004A60D0E9001211604060006070470000BF
:1054500010B50346CCB2042A1AD3810718D11946D5
:1054600044EA042343EA034306E008C1103A08C1B2
:1054700041F8083B41F8043C102AF6D201E008C18B
:10548000121F042AFBD20B4602E000BF03F8014BB7
:10549000521EFBD210BD10B5044600202072FAF750
:1054A00091FEF4E903124A60D4E9001211606460CD
:1054B0002460BDE81040FAF789BE0000074A0021C9
:1054C00002EB01131B78834202D102EB01107047FB
:1054D000491C0329F4DB002070470000C8000020AD
:1054E0002DE9F041054617460E460846FFF7E6FF50
:1054F0000446FFF7F3FD211D606800E00068884264
:10550000FCD1FFF7F9FD46F08000287208223946E9
:10551000284600F0EDF8FAF755FE54F8041F0C3554
:105520004D602168296025606C60BDE8F041FAF7A4
:105530004DBE007A000601D501207047002070475B
:1055400070B5FAF73FFE114C05466088B0B9A06807
:10555000FEF7ACFC0E49401E626851F83010143959
:1055600091420BD020700B486160007801F11C0162
:10557000002802F11C0006D0FAF72BFE2846BDE8F1
:105580007040FAF723BEFAF724FEF7E7F800002090
:10559000E0660020C400002010B50446FAF712FEB1
:1055A000024694F834000E4920F00F00401C84F8A5
:1055B000340094F8350001EBC00104F114004B688D
:1055C00018604B68A361486006486161A16B8368FD
:1055D00019438160BDE810401046FAF7F7BD00009E
:1055E000E0660020F800002010B50446FAF7EAFD56
:1055F00004F11401D1E900235360D1E900231A60BA
:10560000A161616194F83520074951F8323001EB0E
:10561000C2018B4204D10549A36B8A689A438A6010
:10562000BDE81040FAF7D2BDE0660020F800002087
:1056300008B509A0FFF7E4FE0AA0FFF7E1FE12A0FB
:10564000032300900122194612A0FFF7D9FEBDE8FE
:10565000084018A0FFF7D4BE0A205C207C202F0A47
:10566000000000002D205254202D20202020205406
:105670006872656164204F7065726174696E67203D
:1056800053797374656D0A004A756C20333120328A
:1056900030323100202F207C205C2020202020254B
:1056A000642E25642E2564206275696C6420257340
:1056B0000A0000002032303036202D2032303139BF
:1056C00020436F7079726967687420627920727400
:1056D0002D746872656164207465616D0A00000054
:1056E000014600E0491C0A78002AFBD1081A7047DD
:1056F00010B5002A07D0034611F8014B03F8014BFF
:105700002CB1521EF8D110BD03F8011B00E000219E
:10571000521EF9D110BD000010B50A4900230A4CF1
:105720004B80184604EBC002401C526012602028D7
:10573000F8DB1F20087003484B600C308B60406022
:10574000006010BDF8000020E066002010B5074C96
:10575000A068FEF7ABFB0649401E51F83000143834
:105760006060BDE810401C30FAF779BDF8000020F9
:10577000E066002001484060006070471001002092
:105780007047000070B513480468FAF71BFD054622
:105790002046FFF729FF042084F8340004F1440078
:1057A00000F0D0F92046FFF7C4FE012801D1206F98
:1057B00058B104F114010848FFF732FE2846FAF701
:1057C00005FDBDE87040FFF7BBBE2046FFF763FE56
:1057D000F4E70000FC0000200401002000F002F8C3
:1057E000FCE7000070B521E0FAF7ECFC0546FEF797
:1057F00051FC28B315480168A1F11404D1E9000255
:105800004260D1E90002106049600960FFF766FC60
:10581000216F09B1204688472046FFF78AFE0128FC
:1058200009D0FFF769FC2846FAF7D0FCFEF732FCF6
:105830000028D9D170BD2046FFF72DFEFFF75CFC94
:105840002846BDE87040FAF7C1BC00000401002002
:105850001FB5094820231F2280218DE80F00002357
:10586000064A07A1783800F00FF804B00248BDE8F6
:105870001040783800F06CB8E0650020DD57000873
:105880007469646C650000002DE9FF5F92460EAA02
:105890000C4692E8E0010A46994683460121FFF74B
:1058A0001FFE8DE8E0014B46524621465846FEF762
:1058B0007FFF04B0BDE8F09F10B500F0C1F8BDE86F
:1058C000104000F025B870B5044690F8340000F0A0
:1058D0000F00022802D04FF0FF3070BDFAF772FCC3
:1058E000054604F11400FFF7A9FD04F1440000F09F
:1058F00097F92846FAF76AFC2046FFF74DFE00208C
:1059000070BD00000148006870470000FC000020E6
:10591000F1B5FAF757FC05460C480468204600F03C
:105920002DF804F144006A460021064600F0F2F822
:10593000304600F02FF92846FAF748FCFFF700FE42
:10594000206B801C00D120630020F8BDFC000020EB
:1059500010B590F83610012280F835108A400221E7
:10596000826380F83410FFF7AEFF0348006808B187
:10597000FFF7E6FD002010BDFC00002070B50446D6
:1059800090F8340000F00F00012802D04FF0FF30F3
:1059900070BDFAF717FC054694F8340020F00F00AC
:1059A000801C84F834002046FFF71EFE04F14400FA
:1059B00000F036F92846FAF709FC002070BD10B552
:1059C00004466FF00100206304F11400FFF736FD78
:1059D0002046FFF7E1FDBDE81040FFF7B1BD000034
:1059E00070B5FAF7EFFB06461348046894F83400E4
:1059F00000F00F00012819D1D4E90501884215D023
:105A000004F114000546FFF719FD94F835000B4921
:105A100001EBC00041680D60416869604560286025
:105A20003046FAF7D3FBFFF78BFD02E03046FAF77A
:105A3000CDFB002070BD0000FC000020E0660020CF
:105A4000002802DA4FF0FF3070474FF47A7190FB74
:105A5000F1F290FBF1F301FB130000EB40034A432A
:105A6000C3EBC0104B1E03EBC00090FBF1F01044E1
:105A7000704700000148006870470000C000002027
:105A8000094810B50168491C0160FFF73BFF016C34
:105A9000491E016403D1C16B0164FFF7A1FFBDE89A
:105AA000104000F003B80000C00000202DE9F041D4
:105AB000FFF7E0FF0646FAF785FB0746144D1EE0A8
:105AC00060696FF00041301A143C88421AD22046B7
:105AD000FEF7AEFED4E907108847FFF7CBFF064676
